:020000040800F2
:10000000E80800204D020008A51E00089D1E0008FB
:10001000A11E0008D5040008DD2300080000000030
:100020000000000000000000000000009120000817
:100030004505000800000000A91E000895200008E2
:1000400067020008670200086702000867020008EC
:1000500067020008670200086702000867020008DC
:1000600067020008670200086702000867020008CC
:1000700067020008670200086702000867020008BC
:1000800039050008670200086702000867020008D7
:10009000670200086702000867020008670200089C
:1000A000670200086702000867020008670200088C
:1000B000670200086702000867020008670200087C
:1000C000670200086702000867020008670200086C
:1000D00067020008D12300086702000867020008D1
:1000E000670200086702000867020008670200084C
:1000F000670200086702000867020008670200083C
:10010000670200086702000867020008670200082B
:10011000670200086702000867020008670200081B
:10012000670200086702000867020008670200080B
:1001300067020008670200086702000867020008FB
:1001400067020008670200086702000867020008EB
:1001500067020008670200086702000867020008DB
:1001600067020008670200086702000867020008CB
:10017000670200086702000867020008000000002C
:100180006702000800F002F800F050F814A696E8A4
:10019000000CB244B344DA4501D100F047F8BAE8A4
:1001A0000F000FA696E83000A5EB040504EB060748
:1001B000AAEB0704A7F101074FEA15154FEA34141B
:1001C000A4F10104AC4201D300F030F813F0010FA8
:1001D00018BFFB1A43F0010300F001F8DBE71847F2
:1001E0005833000078330000103A24BF78C878C133
:1001F000FAD8520724BF30C830C144BF04680C602D
:1002000070470000704700000023002400250026EE
:10021000103A28BF78C1FBD8520728BF30C148BF69
:100220000B6070471FB51FBD10B510BD00F01CF965
:100230001146FFF7F7FF02F0D3F800F03AF903B4E4
:10024000FFF7F2FF03BC00F03DF9000009488047CA
:1002500009480047FEE7FEE7FEE7FEE7FEE7FEE7A8
:10026000FEE7FEE7FEE7FEE704480549054A064BC0
:10027000704700009920000885010008E80200206E
:10028000E8080020E8040020E804002053EA020CFB
:1002900000F069802DE9F04B4FF00006002B1FBFE6
:1002A000B3FA83F503FA05F424FA05F65E4012BFAB
:1002B0001643B2FA82F502FA05F4C5F120051EBF15
:1002C00022FA05FC44EA0C04203556EA044C4FEAB5
:1002D000144418BF641C4FF000084FF0000990420E
:1002E00071EB030C39D3002919BFB1FA81F701FA78
:1002F00007F6B0FA80F700FA07F6C7F120071EBF2D
:1003000020FA07FC46EA0C062037B6FBF4FCA7EB04
:100310000507103F07F01F0BCBF120062CFA06F65D
:100320000CFA0BFB44BFB3460026202FA4BF5E4649
:100330004FF0000B5BEA060C08BF4FF0010B19EB06
:100340000B0948EB0608ABFB027C06FB02CC0BFB5F
:1003500003CCC01B71EB0C01C1E70B4602464146C2
:100360004846BDE8F08B13B5084318BF4FF0FF3087
:100370000146AFF30080BDE81C40704710B5431C38
:1003800002E010F8011B71B18107FAD14FF0013280
:1003900002C88C1A8C4314EAC211F9D0C01A0A069A
:1003A00003D0C01E10BDC01A10BD0A0401D0801EAB
:1003B00010BD0902FCD0401E10BD00004FF0013CF2
:1003C00050F8042B51F8043B9A4221D1A2EB0C03C4
:1003D000934313EACC1317D150F8042B51F8043B84
:1003E0009A4215D1A2EB0C03934313EACC130BD121
:1003F00050F8042B51F8043B9A4209D1A2EB0C03AC
:10040000934313EACC13DBD04FF00000704700BFDA
:10041000D01A01BAB1FA81F101F0180122FA01F003
:10042000CB40DBB2C0B2C01AC1F120012CFA01F3FB
:10043000D11A914311EAC311E6D170477047704752
:10044000704710B500F008F8006810BD10B50446FC
:1004500000F002F8046010BD0048704770000020F2
:1004600000487047700000207546FFF7F9FFAE4660
:1004700005006946534620F00700854618B020B5B0
:10048000FFF7F2FEBDE820404FF000064FF00007F6
:100490004FF000084FF0000BAC46ACE8C009ACE8E8
:1004A000C009ACE8C009ACE8C00921F007018D46DD
:1004B000704710B50446AFF300802046BDE81040F9
:1004C000FFF7BDBE01491820ABBEFEE726000200C3
:1004D00070470000FEE7000010B5846B204600F076
:1004E0006FF80120207110BD10B5846B204600F01C
:1004F00031F80120207110BD10B5846B206940F0E7
:1005000004002061204600F05FF80120207110BD3A
:1005100010B5846B206940F004002061204600F093
:100520001DF80120207110BD806B00F04BB8000059
:10053000806B00F011B8000040F23810C2F20000E9
:1005400000F004BA70470000EFF3108072B600BFED
:10055000FEE7000070470000704700007047000091
:1005600000284FF0010318BF002901D11846704739
:100570004379012B4FF00203F8D010B503710368E3
:1005800002F0100ED3F800C012C940F6FE7202FA53
:100590000EF221432CEA020201FA0EF11143196016
:1005A000C0211A6801FA0EF122EA01011960012145
:1005B000002301714371BDE81040184670470000E8
:1005C000704700007047000070470000002804BF1B
:1005D00001207047017941B910B5002141710446ED
:1005E00000F00CF82046BDE8104002210171002106
:1005F000012201610271084670470000F0B587B022
:10060000044647F200402168C4F2000000268142FF
:100610000696CDE904660396029601D007B0F0BDB8
:1006200043F630010196C4F202010A6900F5C630B2
:1006300042F000520A610A6902F000520192019AE6
:1006400001960A6842F001020A60096801F001019E
:1006500001910199102102910321CDE9031602A90C
:1006600000F05AFB40F2381546F28800C2F200054D
:10067000C4F202004FF0606140224FF4806385E8CD
:10068000470005F110004FF4006C4FF4005E4FF48A
:10069000807780E808502846C5E907766E6200F04A
:1006A00037FA002818BFFFF74FFFA560AC6307B00B
:1006B000F0BD000081B04FF0000CCDF800C088B153
:1006C0000068002900904FF01400DDF800C008BF5A
:1006D000082010446044009000980360002001B09E
:1006E000704700BF012001B070470000002804BF20
:1006F000012070474279012A4FF0020224D010B540
:100700000271026801F0100C4FF0010E14680EFA2D
:100710000CF323431360136841B103F470113C23BD
:1007200003FA0CF3994209D1022104E003F03C01E1
:100730003C2903D101215368194351600121002252
:1007400001714271BDE8104010467047002804BF97
:10075000012070478446407901284FF0020008BF0D
:1007600070472DE9F041069C012688468CF805600B
:100770008CF8040021B3DCF80C0040F2E94640F2AA
:100780003157C0F60006C0F60007C0E90F6740F217
:100790001157DCF80010C0F60007C7640F68042C7E
:1007A00047F080570F604FF01C0708BF18276546B9
:1007B000002C08BF142701EB070C4FF0005423E076
:1007C000DCF800106546DCF8080040F2D94C40F235
:1007D0002956C0F6000CC0F60006C0E90FC640F26C
:1007E000F946C0F60006C6640E68042C46F480562E
:1007F0000E604FF0100608BF0C26002C08BF08261C
:1008000001EB060C4FF400540F6827430F601146AC
:10081000624600F02FFA0021697118B105F110014C
:10082000042205E008F010020123296803FA02F20D
:100830000B681A430A60BDE8F04170474FF00102AF
:1008400038B370B5036801F0100C4FF4805E1D687A
:100850000EFA0CF4A5431D601D6802FA0CF225EA9D
:1008600002021A600C22002908BF082281586FF08A
:1008700000540646084608BF6FF40054012500F0F6
:100880000BF8306800220168214001603571BDE835
:10089000704010467047000070B5866D044600F049
:1008A0000FFB94F83510022928D105462068216CE9
:1008B000026822F016020260426922F08002426160
:1008C00009B9A16C19B1016821F008010160016842
:1008D00021F00101016000BF20680068C00715D049
:1008E00000F0EEFA401B0628F6D3202060650320B6
:1008F00084F83500002184F8341070BD80206065D4
:100900000120002184F8341070BD00BFE06D3F214C
:1009100001FA00F0B060012084F8350000200021C9
:1009200084F8341070BD000090F83510022909D108
:10093000052180F835100068016821F0010101608F
:10094000002070478021416501207047F0B581B0DB
:100950000021009140F20801C2F200010B68D0E9C9
:10096000166148F2B51537680822C1F64E358A403F
:100970003A42A3FB05350CD003681C68640708D510
:100980001C6824F004041C60B260426D42F0010255
:10099000426501228A403A4208D003685B691B061F
:1009A00004D5B260426D42F00202426504228A40E0
:1009B0003A4208D003681B689B0704D5B260426DB9
:1009C00042F00402426510228A403A4219D001687E
:1009D0000B681B0715D5B2600B680A685B0309D466
:1009E000D20509D40A6822F008020A60016C29B90C
:1009F00007E000BF110341D4016C11B104468847E0
:100A00002046C26D202101FA02F33B4243D0016827
:100A10000F68FF063FD5B36090F835700B68052F5F
:100A20001CD123F016030B604B6923F080034B614C
:100A3000036C0BB9836C1BB10B6823F008030B60CC
:100A40003F219140B160012180F83510016D0022F5
:100A5000002980F8342054D158E000BF0A685B03B5
:100A600010D4D20512D40A6822F010020A600121C3
:100A700080F83510002180F8341007E0816C0029DF
:100A8000BCD1BEE7110301D4416C00E0C16B11B1D0
:100A9000044688472046416DC1B3416DC9072ED039
:100AA000052180F835100168AA0A0B6823F00103BC
:100AB0000B60009B0133934200931AD80B68DB074D
:100AC00017D0009B01339342009312D80B68DB07C9
:100AD0000FD0009B0133934200930AD80B68DB07C9
:100AE00007D0009B01339342009302D80B68DB07C9
:100AF000DFD1012180F83510002180F83410C16C5D
:100B000021B101B0BDE8F040084700BF01B0F0BD21
:100B10002DE9F041044600F0D3F9ECB1054602207E
:100B200084F835000020216884F83400086820F03B
:100B30000100086021680868C00711D000F0C0F902
:100B4000401B0528F6D9032520230320636584F87C
:100B50003550BDE8F08100BF0120BDE8F08100BF45
:100B6000086848F23F02CFF21002D4E9013500EAEA
:100B7000020C04F10C0898E8C10143EA0C032B4372
:100B80001843D4E9072E304338431043626A40EAE1
:100B90000E00042A40EA08031CD1206BD4E90A2E77
:100BA00040EA0E00184308604869BEF1000F20F0CB
:100BB000030040EA020040F0040C11D0B8F5005FD9
:100BC00036D0B8F1000F45D1022A46D0012A3BD0D9
:100BD00032B942E00B60486920F0070040EA020C9D
:100BE00001F0F8004AF6AB221038CAF6AA22A0FBA0
:100BF00002231A0943F20453C1F814C0C0F60003DB
:100C00009A5C40F2FF335F284FF03F0021EA030176
:100C100000FA02F088BF0431C4E91612886000238C
:100C200001250020636584F83550BDE8F08100BFE0
:100C3000032AD5D8012540230120DFE802F0030E66
:100C4000030500BF82E700BFAEF1C070B0FA80F0CC
:100C5000400904E0032A04D3C2D1CEF30060002887
:100C6000BED0012540230120636584F83550BDE8DE
:100C7000F081000090F834C0BCF1010F04BF0220E5
:100C8000704770B54FF0010C80F834C0D0F858E0D0
:100C900090F835C0BCF1010F38D14FF0020C80F84C
:100CA00035C04FF0000CC0F854C0D0F800C08468C4
:100CB000056CC06DDCF80060402C26F48026CCF872
:100CC0000060CCF804300B4604BF13460A463F21AF
:100CD00001FA00F0CCF80830CCF80C20CEF808006F
:100CE000DCF8000040F01600CCF800002DB1DCF874
:100CF000000040F00800CCF80000DCF8000040F0F4
:100D00000100CCF80000002070BD00BF002180F879
:100D10003410022070BD00002DE9F04F83B00F6841
:100D2000002F00F0C98000F13E4642F2000C00F1B5
:100D3000200206F1FF76C4F2020C00924FEAB625BB
:100D40000922604508BF0822082D4FF000054FF02A
:100D500000084FF0000938BF4FEAB62201920AE0BE
:100D60000F6809F1010937FA09F208F1020805F1E3
:100D7000040500F0A180012202FA09FE17EA0E0A1A
:100D8000EED0D1F804C003220CF003077E1E02FA55
:100D900008F4012E6FEA040B12D88468CE6804EAC6
:100DA0000B0406FA08F634438460446824EA0E060D
:100DB000CCF3001404FA09F42643466004E000BFB3
:100DC000032F01D103271EE0C6688C6806EA0B06D4
:100DD00004FA08F42643022FC66014D16FF0030210
:100DE000009E02EA590756F807C005F01C040F22BE
:100DF0000B69A2402CEA0202A3401A43F251D1F837
:100E000004C00CF00307026807FA08F302EA0B02B9
:100E10001A431CF4403F0260A2D0002243F6440370
:100E20000292C4F202031A6843F6004442F480427C
:100E30001A601A68C4F2010402F480420292029A13
:100E400029F003024FF6084C2244CFF6FF7C52F8FB
:100E50000C3005F00C070F26BE40B343019E06FA86
:100E600007F73B4342F80C30A2684B6842EA0A0796
:100E700043F60C4CDE0258BF22EA0A07A760C4F210
:100E8000010CDCF800209E0242EA0A0758BF22EA61
:100E90000A07CCF8007062689E0342EA0A0758BF4E
:100EA00022EA0A0767602268DB0342EA0A0758BFA2
:100EB00022EA0A07276053E703B0BDE8F08F00007D
:100EC00040F2E020C2F200000068704740F20000EB
:100ED00040F2E021C2F20000C2F2000100780A688C
:100EE000104408607047000080B543F60040C4F22B
:100EF0000200016841F400710160016841F4806101
:100F00000160016841F480710160032000F086F8FF
:100F10000F2000F005F800F027F8002080BD000049
:100F200070B540F20006C2F2000640F208013278C5
:100F3000C2F200014FF47A730968B3FBF2F204467F
:100F4000B1FBF2F1084600F031FB0F2C4FF0010528
:100F500008D838B94FF0FF3021460022002500F0B4
:100F600031F87460284670BD82B0002043F640011D
:100F70000190C4F202014A6842F480424A604A6821
:100F800002F480420192019A0090086840F080507B
:100F90000860086800F080500090009802B0704728
:100FA000002848BF704700F01F01012202FA01F13A
:100FB0001C2202EAD0004EF20012CEF20002815052
:100FC0007047000010B54EF60C5CCEF2000CDCF859
:100FD0000030C3F3022E8EF00704042C28BF042433
:100FE000BEF103034FF0FF3E0EFA04F438BF0023B6
:100FF000A14399400EFA03F39A43114300F00F0204
:1010000000F160430901043A03F564436244002897
:1010100048BF02F10C03197010BD00004EF60C51D0
:10102000CEF200010A684FF6FF031A4060F30A226D
:1010300042F0806040F0FD7008607047002804BFF7
:10104000012070472DE9F04143F60808C4F2020878
:101050000446D8F8F8030D4600F00F00814207D986
:1010600088F8F853D8F8F80300F00F00A84269D1C7
:101070002068810717D5410705D5D8F8001041F43D
:10108000E051C8F80010010705D5D8F8001041F468
:101090006041C8F80010D8F80010A26821F0F001F3
:1010A0001143C8F80010C00736D1D8F8F80300F093
:1010B0000F00854207D288F8F853D8F8F80300F0FB
:1010C0000F00A8423ED12068410707D5D8F800108C
:1010D000E26821F4E0511143C8F80010000708D578
:1010E000D8F80000216920F4604040EAC100C8F847
:1010F0000000D8F80010C1F3810142F20040C0F2B4
:10110000F400DFE801F061033F6100BF47F64000F3
:10111000C0F27D1058E000BF606858F8081C022833
:1011200008D001280CD189035CBF0120BDE8F08103
:101130000CE000BF89015CBF0120BDE8F08105E043
:10114000890703D40120BDE8F08100BFD8F8001062
:1011500021F003010843C8F80000FFF7B1FE06467E
:1011600041F28837D8F80000616800F00C00B0EB5D
:10117000810F9AD0FFF7A4FE801BB842F2D903205A
:10118000BDE8F08158F8040C58F8041C58F8043CE9
:10119000490247F64001C0F27D1100F03F02C3F35F
:1011A00088105CBF42F20041C0F2F401A1FB0001D3
:1011B0000023FFF76BF858F8041C0222C1F3014129
:1011C00002EB4101B0FBF1F0D8F8001043F2EC4221
:1011D000C1F30311C0F60002515C40F2080220FA8C
:1011E00001F140F20400C2F200000068C2F2000205
:1011F0001160FFF795FE0020BDE8F08140F2080085
:1012000043F60801C2F20000C4F202010068096856
:1012100043F2FC42C1F38221C0F60002515CC84097
:101220007047000040F2080043F60801C2F20000D7
:10123000C4F202010068096843F2FC42C1F3423182
:10124000C0F60002515CC84070470000002804BF8F
:10125000012070472DE9F04182B00446007843F642
:101260000006C007C4F2020635D0B06800F00C00DA
:10127000042809D1306880032DD5606858BB01204F
:1012800002B0BDE8F08100BFB06800F00C00082893
:1012900002D170684002EDD46068B0706568FFF7F5
:1012A0000FFE002D054613D03068800313D4FFF7DE
:1012B00007FE401B6428F7D9032002B0BDE8F08187
:1012C000FFF7FEFD401B64284FF0030000F2208171
:1012D00030688003F4D4207880071BD5B06810F004
:1012E0000C0F09D0B06800F00C00082840F098807E
:1012F0007068400200F194803068800703D5E06890
:10130000012840F0D5803068216920F0F80040EADB
:10131000C1003060207800073AD42078400751D4CB
:10132000A56985B3B06800F00C00082840F0DC80A7
:10133000012D00F0BD807068E16900F480028A42EE
:1013400040F0B680216A00F03F028A4240F0B0804F
:1013500047F6C071626A0140B1EB821F40F0A8807D
:10136000A16A4FF6FF73C903994300F44032A1F517
:1013700080318A4240F09C80E16A00F07060B0EBFE
:10138000016F40F09580002002B0BDE8F08100BF01
:101390006069002800F090800020C4F247200121FD
:1013A000C0F8801EFFF78CFD054600BF706F8007F8
:1013B000B3D4FFF785FD401B0228F7D9032002B004
:1013C000BDE8F081306C5FEAC0080AD400200190CB
:1013D000306C40F080503064306C00F080500190F0
:1013E000019847F20007C4F20007386840F48070A3
:1013F00038603868C0052FD4386840F48070386091
:10140000FFF75EFD054600BF3868C00524D4FFF72E
:1014100057FD401B0228F7D9032002B0BDE8F08138
:10142000E068002840F20000C4F2472000F080800D
:1014300001210160FFF744FD054600BF30688007C9
:101440003FF561AFFFF73CFD401B0228F6D90320B2
:1014500002B0BDE8F08100BFA06886F87000A56802
:10146000FFF72EFD002D054641F2883713D000BF4F
:10147000306F800712D4FFF723FD401BB842F7D925
:10148000032002B0BDE8F081FFF71AFD401BB8420F
:101490004FF003003CD8306F8007F5D4B8F1000F4F
:1014A0003FF53EAF306C20F08050306438E700BF2D
:1014B000012002B0BDE8F0810020C4F247200021E5
:1014C000C0F8801EFFF7FCFC054600BF706F800768
:1014D0007FF523AFFFF7F4FC401B0228F6D9032069
:1014E00002B0BDE8F08100BF0027C4F2472700200A
:1014F0003866FFF7E5FC022D05460DD13068800106
:1015000028D5FFF7DDFC401B64284FF00300F5D918
:1015100002B0BDE8F08100BF306880017FF533AFD5
:10152000FFF7CEFC401B64284FF00300F4D9EFE72F
:1015300000210160FFF7C4FC054600BF306880074A
:101540007FF5E8AEFFF7BCFC401B02284FF003001C
:10155000F4D9DDE7706848F20001CFF2BC0104F174
:101560001C0500EA010C2ECDE46A41EA0C01ED03F2
:101570004FF6FF70114325EA000041EA8311A0F500
:10158000803041EA04610843706001203866FFF74B
:1015900097FC0446306880013FF5F5AEFFF790FCFC
:1015A000001B64284FF00300F4D9B1E7411E00206E
:1015B000B0EB116F1CBF012070474EF21002CEF24B
:1015C000000251604EF62351CEF20001F0230B7061
:1015D000072190601160704790F83C20012A4FF07D
:1015E000020254D010B580F83D200268D2F804E021
:1015F000D2F808C00C682EF07003234341F2FF7448
:10160000C4F20004A24253600EDC40F2FF73C4F245
:1016100000039A4216DCB2F1804F2BD040F2004317
:10162000C4F2000324E000BF40F2FF33C4F2010320
:101630009A4213DC41F60003C4F200039A4219D027
:10164000002313E040F60003C4F200039A4211D0D5
:1016500040F60043C4F200030AE000BF44F2000376
:10166000C4F201039A4205D040F20043C4F20103E0
:101670009A4204D149682CF08003194391600121FA
:10168000002280F83D1080F83C20BDE81040104654
:1016900070470000002804BF0120704710B50446C1
:1016A00090F83D0028B9002084F83C00204600F066
:1016B0001FF8022084F83D002068211D00F0EEFC98
:1016C000012084F8460084F83E0084F83F0084F846
:1016D000400084F8410084F8420084F8430084F814
:1016E000440084F8450084F83D00002010BD00004F
:1016F000006841F20001C4F20001884218BF70473F
:1017000081B00020009043F64000C4F2020001685E
:1017100041F010010160006800F010000090009896
:1017200001B0704790F83D1001291CBF012070479F
:10173000022180F83D10006841F2FF71C4F20001FF
:1017400088420DDC40F2FF71C4F20001884215DCD2
:10175000B0F1804F2AD040F20041C4F2000123E0F2
:1017600040F2FF31C4F20101884213DC41F600016E
:10177000C4F20001884219D0002113E040F60001B4
:10178000C4F20001884211D040F60041C4F20001C9
:101790000AE000BF44F20001C4F20101884205D012
:1017A00040F20041C4F20101884206D1816801F093
:1017B0000701062904BF00207047016841F00101BC
:1017C0000160002070470000704700007047000073
:1017D000B0B582B001680A68CC684B6902F02F0589
:1017E000202D04F0200505D125B102B0BDE8B040A0
:1017F00000F0FCBC5FEA027C1EBF03F0010E04F4A3
:10180000907313EB0E0341D1036BD50618D5012B52
:1018100016D114F0100313D0002201920A6801922D
:101820004A680192019A496949064BD4818DC28D5B
:10183000C38D002B18BF914240F0F48102B0B0BDBF
:1018400013062DD514F080032AD090F84120212AC8
:10185000F4D18268B2F5805F03D10269002A00F0FA
:101860006782026A531C036212784A60C28C013A92
:101870001304C284E2D1C86820F08000C860C86840
:1018800040F04000C86002B0B0BD00BFD30718BF31
:1018900014F4807340F0D080530700F1D380D8E077
:1018A0005206CBD514F04002C8D0CA6822F04002DC
:1018B000CA60202180F8411002B0BDE8B04000F0BD
:1018C000EBBA00BFC16B0A68526893B2002BB5D067
:1018D000858DAB42B2D2C285C969B1F5807F00F077
:1018E000A080016851E8031F026821F4807142E87A
:1018F0000313DBB1016851E8031F026821F4807112
:1019000042E8031393B1016851E8031F026821F410
:10191000807142E803134BB1016851E8031F02686C
:1019200021F4807142E80313002BDAD1016851E8F9
:10193000051F026821F0010142E80513BBB30168ED
:1019400051E8051F026821F0010142E8051373B355
:10195000016851E8051F026821F0010142E8051302
:101960002BB3016851E8051F026821F0010142E82C
:101970000513002BDAD11AE0016851E8051F02684F
:1019800021F0400142E80513DBB1016851E8051F71
:10199000026821F0400142E8051393B1016851E863
:1019A000051F026821F0400142E805134BB10168B0
:1019B00051E8051F026821F0400142E80513002BA1
:1019C000DAD1202180F8421000210163016851E83A
:1019D000031F026821F0100142E80313DBB1016824
:1019E00051E8031F026821F0100142E8031393B18C
:1019F000016851E8031F026821F0100142E8031357
:101A00004BB1016851E8031F026821F0100142E860
:101A10000313002BDAD1C16B04460846FEF73CFFE6
:101A2000204602214163818DC28D891A89B202B09C
:101A3000BDE8B040FFF7C8BE436C43F00103436408
:101A4000530706D5BEF1000F03D0436C43F00203E9
:101A50004364930706D5BEF1000F03D0436C43F0F7
:101A600004034364BCF1000F06D55EEA050303D00E
:101A7000436C43F008034364436C002B3FF4DEAE39
:101A8000920605D525B1044600F0B0FB216820463A
:101A90004969426C01F0400102F00802891800F027
:101AA000B98000BF016851E8031F026821F49071FA
:101AB00042E80313BBB3016851E8031F026821F435
:101AC000907142E8031373B3016851E8031F026881
:101AD00021F4907142E803132BB3016851E8031F0E
:101AE000026821F4907142E80313002BDAD11AE066
:101AF000016851E8051F026821F0010142E8051361
:101B0000DBB1016851E8051F026821F0010142E8DC
:101B1000051393B1016851E8051F026821F0010126
:101B200042E805134BB1016851E8051F026821F036
:101B3000010142E80513002BDAD1016B012924D100
:101B4000016851E8031F026821F0100142E8031305
:101B5000DBB1016851E8031F026821F0100142E87F
:101B6000031393B1016851E8031F026821F01001CB
:101B700042E803134BB1016851E8031F026821F0EA
:101B8000100142E80313002BDAD1202180F8421023
:101B90000021016301684969490640F1C380016879
:101BA00051E8051F026821F0400142E80513DBB14E
:101BB000016851E8051F026821F0400142E8051361
:101BC00093B1016851E8051F026821F0400142E825
:101BD00005134BB1016851E8051F026821F040016F
:101BE00042E80513002BDAD1C16B002900F09A807E
:101BF00042F2E112C0F60002044608460A65FEF70A
:101C000093FE00283FF41AAEE06B016D02B0BDE810
:101C1000B04008470446FFF7D9FD0020606402B0D9
:101C2000B0BD00BF891A00BF026852E8032F0368E5
:101C300022F4907243E80325BDB3026852E8032FF3
:101C4000036822F4907243E8032575B3026852E8F2
:101C5000032F036822F4907243E803252DB3026832
:101C600052E8032F036822F4907243E80325002D05
:101C7000DAD11AE0026852E8052F036822F0010267
:101C800043E80525DDB1026852E8052F036822F01C
:101C9000010243E8052595B1026852E8052F036863
:101CA00022F0010243E805254DB1026852E8052FF4
:101CB000036822F0010243E80525002DDAD1202235
:101CC00080F8422000220263026852E8032F036872
:101CD00022F0100243E80325DDB1026852E8032F29
:101CE000036822F0100243E8032595B1026852E828
:101CF000032F036822F0100243E803254DB1026868
:101D000052E8032F036822F0100243E80325002D58
:101D1000DAD1022289B2426302B0BDE8B040FFF7D7
:101D200053BD00BF02B0BDE8B040FFF74FBD00BFDC
:101D3000026A32F8023B6FF35F234B60026295E563
:101D4000002804BF0120704710B5044690F84100F8
:101D500028B9002084F84000204600F021F8242013
:101D600084F841002068C16821F40051C160204618
:101D700000F0BCFA2068016921F4904101614169D9
:101D800021F02A014161C16841F40051C160002085
:101D90002021606484F8411084F84210606310BD13
:101DA00080B586B041F200010068C4F20101002252
:101DB00088420592CDE903220292019202D006B038
:101DC00080BD00BF43F630000092C4F202004369B8
:101DD00043F010034361436903F010030093009B39
:101DE0000092036843F001030360006800F0010003
:101DF000009000984FF4C06001900220CDE90202EB
:101E0000032004900720059001F5704001A9FEF71A
:101E100083FF252000210022FFF7D4F82520FFF7BB
:101E2000BFF806B080BD000090F84230202B07D1EB
:101E300000294FF0010318BF002A05D1184670474A
:101E400002231846704700BF0023036381622221EA
:101E50008285C285436480F842100169006819B127
:101E6000C16841F48071C160416941F00101416183
:101E7000C16841F02001C1601846704740F2D001AE
:101E8000C2F20001012001F8010B40F29810C2F2E9
:101E900000000822FFF7C8BF70470000FEE70000FF
:101EA000FEE70000FEE7000070470000F0B583B0D9
:101EB00040F2D005C2F2000500202872681CFEF72F
:101EC0005DFA0428C0F0C480A8783A2840F0C080A9
:101ED000E8786C7800210D28029100F2BB80012186
:101EE000814042F20142114200F0B48040F20C06FF
:101EF000C2F20006316802A8FEF760FA002851D04D
:101F0000374657F8081F02A8FEF758FA00284AD0AB
:101F1000374657F8101F02A8FEF750FA002842D0A3
:101F2000374657F8181F02A8FEF748FAD8B33746C5
:101F300057F8201F02A8FEF741FAA0B3374657F81A
:101F4000281F02A8FEF73AFA68B3374657F8301F41
:101F500002A8FEF733FA30B3374657F8381F02A805
:101F6000FEF72CFAF8B1374657F8401F02A8FEF7E3
:101F700025FAC0B1374657F8481F02A8FEF71EFAE7
:101F800088B1374657F8501F02A8FEF717FA50B12C
:101F900056F8581F02A8FEF711FA0028374657D105
:101FA00001E000BF37464E2C46D17C680021204618
:101FB00000F0C0FE00284BD120464FF0864101F0D2
:101FC00099F801464EF2C010C4F6644000F0CCFE11
:101FD0000021CBF6807100F029FE00F0D7FF0A281F
:101FE00098BF0A20296A4FF6FF72904228BF104618
:101FF0000A6A41F211131A4208D10A6A40F24443B4
:102000001A4203D10A6822F001020A600027C8625E
:10201000E8624F62086840F2E01240F00100086098
:1020200005F10C00C2F20002002180230097FEF7A8
:102030008DFB03B0F0BD00BF05F10C04204600216C
:10204000FEF7FCFB2046002100220023FEF732FBB6
:1020500003B0F0BD29798DF808000D2906D80120BC
:10206000884042F2014210427FF440AF68798DF817
:1020700009100D2808D80121814042F20142114285
:1020800008BF8DF80A0031E78DF80A002EE700003E
:1020900070470000FEF71ABF7047000010B540F609
:1020A000FF3E0368C4F2000E40F2004C7045C4F2DB
:1020B000010C25DCB0F1804F2FD040F20042C4F279
:1020C0000002904229D040F60002C4F20002904281
:1020D00023D041F6FF72C4F20002904227DC704523
:1020E0003ADCB0F1804F5BD040F20042C4F2000213
:1020F000904255D040F60002C4F200024EE000BF0C
:1021000040F60042C4F20002904206D0604504D07E
:102110000022C4F201029042DBD14A6823F070032E
:10212000134341F6FF72C4F200029042D7DD43F63A
:10213000FF72C4F20102904220DC42F20002C4F2BB
:10214000000290422CD00022C4F20102904227D01B
:10215000604525D028E000BF40F60042C4F20002EE
:1021600090421DD041F60002C4F20002904217D006
:1021700041F60042C4F2000210E000BF44F2000247
:10218000C4F2010290420BD044F60002C4F20102F4
:10219000904205D044F20042C4F20102904203D1C1
:1021A000CA6823F44073134323F080024B69D1F8CB
:1021B00000E08C681A430260C46240F48062C0F898
:1021C00028E0624504BF0969016301214161016999
:1021D000C90708BF10BD016921F00101016110BDEF
:1021E000806B0021C185C184FFF7F0BA81B090F8FF
:1021F0004210222921D183680246B3F5805F09D1BC
:1022000052F8281F52F8183C002B63D003685B6813
:102210000AE000BF52F8281F13B90369002BF5D05C
:1022200003685B6803F07F030B7011680131116074
:10223000C18D01390A04C18502D001B0704700BFC9
:102240000168CA6822F02002CA60CA6822F480725B
:10225000CA604A6922F001024A61202180F84210D6
:1022600000214163026B012A3CD10163016851E8FE
:10227000031F026821F0100142E80313DBB101687B
:1022800051E8031F026821F0100142E8031393B1E3
:10229000016851E8031F026821F0100142E80313AE
:1022A0004BB1016851E8031F026821F0100142E8B8
:1022B0000313002BDAD101680A68D20606D5002282
:1022C00000920A680092496800910099818D01B0DE
:1022D000FFF77ABA026852686FF35F2221F8022B87
:1022E0008162A5E701B0FFF7C9BD000010B5044643
:1022F0000068D4E902C22369016921F44051114305
:102300000161626943EA0C01E3691143C268194340
:1023100049F20C639A431143C1604169A26921F4F7
:10232000407141F20043114340F48062C4F2010362
:102330009A42416102D1FEF775FF01E0FEF75EFFB0
:10234000E3694FF69C7C62681921C0F6FF7CB3F507
:10235000004F01FB00F01FD15100B0FBF1F048F23B
:102360001F51C5F2EB11A0FB01235A090CF1805358
:1023700002FB0300322303EBC000A0FB01014FF47A
:10238000F87000EA111000EB0210C1F3421108448A
:102390002168886010BD00BF9100B0FBF1F048F2E9
:1023A0001F51C5F2EB11A0FB01235A0902FB0C00DF
:1023B000322303EB0010A0FB0101F02000EA5110D2
:1023C00000EB0210C1F3431108442168886010BD7E
:1023D00040F29810C2F20000FFF7FAB9FEE70000E1
:1023E00092B0FEF781FD002401200B94CDE9094451
:1023F000099010200A900A200E90E1200F900620EC
:10240000109004200225119006A8CDE907440695F6
:10241000CDE90C54FEF71AFF20B1EFF3108072B62D
:10242000FEE700BF0F20CDE901054FF48050CDE954
:10243000040401A801210394FEF700FE20B1EFF38C
:10244000108072B6FEE700BF002443F63000069409
:10245000C4F20200016841F2000641F0010101608E
:102460000168002201F001010691069906940168B5
:10247000C4F2000641F4001101600068002100F47C
:102480000010069006981020FEF79CFD1020FEF725
:1024900087FD40F2D0050420C2F20005069006F543
:1024A000C841284640F80C1F0794FEF78FF828B162
:1024B000EFF3108072B600BFFEE700BF05F10C0419
:1024C00006A9204600220027FEF74AF820B1EFF3C4
:1024D000108072B6FEE700BF20200690284640F824
:1024E000206F42F6DF610797C0E90177C16087611D
:1024F000FFF7D0F820B1EFF3108072B6FEE700BF0F
:1025000005F1200706A93846FFF766F820B1EFF37A
:10251000108072B6FEE700BF40F2981006F58031D9
:10252000C2F2000000230C264FF4E13280E80E00D6
:10253000C0E90333C0E90563C361FFF701FC28B1BB
:10254000EFF3108072B600BFFEE700BF009742F6BF
:10255000185942F2FB1A4EF2000740F2E01B002627
:10256000C5F24449C4F2190AC4F2FF47C2F2000B93
:10257000304600F04AFA4A46534600F059FA002223
:102580004FF07E5300F054FA00F00EFA00F048F9D4
:10259000394600F0AFFD394600F048FB00F0DAFCA8
:1025A0002BF81600701C0BEB460800F02EFA4A467A
:1025B000534600F03DFA00224FF07E5300F038FA07
:1025C00000F0F2F900F02CF9394600F093FD39469D
:1025D00000F02CFB00F0BEFCA8F80200B01C00F0DC
:1025E00014FA4A46534600F023FA00224FF07E5375
:1025F00000F01EFA00F0D8F900F012F9394600F0A8
:1026000079FD394600F012FB00F0A4FCA8F80400A4
:10261000F01C00F0FAF94A46534600F009FA00228D
:102620004FF07E5300F004FA00F0BEF900F0F8F825
:10263000394600F05FFD394600F0F8FA00F08AFCF8
:102640000436802EA8F8060092D1204600210024EE
:10265000FEF74CF80098FFF765F840F29810691CF7
:10266000C2F200000822FFF7DFFB00BF2878002835
:10267000FCD02C70FFF71AFCF8E74100080218BFE5
:1026800004200A0E18BF40F001004FF07F4232EAEA
:10269000010108BF40F00200012808BF0520704773
:1026A000012100F0D4BE0021084600F05DBB6FF0B0
:1026B0005E01080700F0CBBE2DE9F04D0D46144633
:1026C0004FF07F41B1EB440F9EBF4FF0FF312960C7
:1026D000BDE8F08D4FF0004040EA0421C4F3C7503C
:1026E000783810F01F024A4B4FEA601CC2F12006F6
:1026F0007B44C4F3C750A0F178004FEA601003EBAD
:10270000800053F82C3008BFD0E901C612D0D0F8B1
:1027100004C093402CFA06F73B4387680CFA02FC8E
:1027200027FA06F8C06807FA02F2F0404CEA080CF3
:1027300042EA0006A3FB0132ACFB01C0A6FB01612B
:1027400001EB0C068E4234BF4FF0010C4FF0000C31
:10275000C1186144BCF1000F02D0814202D903E0EC
:10276000814201D2012000E00020104400F120024B
:102770004FEA92188006CA0C40EA42304F03C5F86F
:10278000008000F023FC8246384600F037FC6FF0F2
:10279000120100F05CFE0746304600F02FFC6FF09F
:1027A000250100F054FE83463946504600F03EFABB
:1027B000594600F03BFA00F500666FF30B065146F0
:1027C000304600F09DFD394600F09AFD594600F074
:1027D0008DFD104900F08EFC07460F49304600F091
:1027E00089FC394600F022FA07460C49304600F0D1
:1027F00081FC394600F01AFA14F0004F08BFBDE81A
:10280000F08DC8F1805180F000402960BDE8F08D66
:10281000D80D0000DB0FC92F22AAFD290000C92F07
:102820002DE9F8430446024652486946B0EB420F90
:1028300009D94FF0E640B0EB420F94BF00204FF0B3
:10284000FF30009030E04C4B22F00040834271D9C1
:102850004A49204600F04EFC00F018FD804600F08A
:1028600079FB00F0030000904549404600F042FC2F
:1028700005464449404600F03DFC06464249404674
:1028800000F038FC07464149404600F033FC214641
:1028900000F02CFD394600F033FD314600F030FDEC
:1028A000294600F02DFD04462546009C002C45DB02
:1028B000294614F0010F08461ED000F01BFC054607
:1028C000334900F017FC334900F0B0F9294600F015
:1028D00011FC314900F0AAF9294600F00BFC4FF039
:1028E0007E5100F0A3F914F0020F08BFBDE8F88391
:1028F00080F00040BDE8F88300F0FCFB0646274965
:1029000000F0F8FB264900F091F9314600F0F2FBA7
:10291000244900F08BF9314600F0ECFB294600F029
:10292000E9FB294600F082F914F0020FE0D1BDE87E
:10293000F883FFE71046FFF7BFFEB4E76800B0F189
:102940007F4F09D22846FFF798FE042808BFFFF7FB
:10295000AEFE2846BDE8F88306D10120FDF776FDDE
:10296000BDE8F843FFF79FBE2846BDE8F843FFF7F0
:1029700097BE0000B61F927E490E494683F9223F5A
:102980001A61342C0020A23300A0FD390000C93F99
:10299000B93AB2BACA9F2A3DDDFFFFBE336D4CB9CA
:1029A000DA82083CA0AA2ABE21F0004201F00043CE
:1029B000A2F16052B2F5801F28BFD2F17F6C0BD913
:1029C0005FEA001C43EAC20242EB507018BF704736
:1029D00028BF20F001007047B2F5801FBCBF184629
:1029E00070474FEA410C1CF5001F02D2084600F068
:1029F00048BC70B500F0C6F800000089FFF7F6BFCC
:102A00004FF00040A0F580007047B0FA80F310FA54
:102A100003F10AD0C3F11D0303F580634FEA0352AB
:102A20004FEA415002EBD12170474FF00000704750
:102A300070B5DFF848C11CEA111E1EBF1CEA131551
:102A40009EEA0C0F95EA0C0F00F06F8081EA0304F8
:102A50004EEAD47EAE4421EA4C1123EA4C1341F4F1
:102A6000801143F48013AEF17F7EA1FB024CA0FBEA
:102A70000365361955EB0C05A1FB034C4CF1000323
:102A8000A0FB021C16EB0C06654153F10003094242
:102A900018BF46F0010613F4007F0BD14FEA033153
:102AA0004FEA053041EA155140EA165034036FF001
:102AB00003020AE04FEAC3214FEAC52041EA55511B
:102AC00040EA5650F4026FF0020202EB2E4201EB94
:102AD000025585EACE710AD05FEA440C18BF24F093
:102AE000004450F1000041F1000120EAD47040F2AE
:102AF000FE7C624500D270BDA84214BF4FF08044F6
:102B00004FF04044002E08BF0024BEF1806FA8BFE4
:102B1000A1F1C041BDE8704080F2828001F1C04166
:102B200001F000414FF0000070470CEA13159EEAD7
:102B30000C0F18BF95EA0C0F06D081EA030E4FF078
:102B400000000EF0004170BD00F01CF88900013E4D
:102B500000F007B800F009B84FEA430C5FEA5C5C8C
:102B600008D081EA030100F05BB84FEA410C5FEA4C
:102B70005C5CF6D102494FF0000070470000FF078F
:102B80000000F87F0EF1020E2EF0030E5EF8046BCB
:102B9000364205D4012A43EB030515F5001F12D870
:102BA000012841EB010C1CF5001F0CD80ED14FEA97
:102BB000D17C0CEB4C0C0CF1020C15F5001F08BF7E
:102BC0004CEBD37C04E04FF0080C01E04FEAD37CDF
:102BD0000CEB4C0526FA05F606F00706B6F1040CD8
:102BE00006D20EEB860CBDE870404CF0010C60473D
:102BF000DFE80CF0090B02024FF00041A1F50021C3
:102C00004FF0000070BD19461046012851EB010439
:102C100018BFD4F5001484BF002001F0004170BD3E
:102C20000808A0F500114FEA3101704790EA010F42
:102C300048BF81F0004100F16A83421A3CBF801A0C
:102C400089184FEAD052A2EBD1534FF07F4C1CEAC7
:102C5000410F18BF9CEA026F00F03B804FF0004C20
:102C60004CEA00204CEA012121FA03FC10EB0C0C89
:102C70001ED202F1FF325FEA1C2040EBC25038BF87
:102C800070471CF07F0F4FEA400C18BFBCF17F4F1C
:102C900038BF7047C3F12003994008BF20F00100FE
:102CA000BCF17F4F38BF7047A0F1C04000F0E9BAD7
:102CB0004FEA3C00000A40EBC25028BF1CF0FF0F57
:102CC0004FEA400CE6D018BFBCF17F4F38BF7047C9
:102CD000EAE79CEA026F05D010EA5C0F08BF00F03B
:102CE0000040704710B500F086FA00BF64FBBE3E9E
:102CF000014800F07ABB00BF0000C07F10B500F0B3
:102D0000F5F80CBF0120002010BD10B500F0EEF862
:102D100014BF0120002010BD10B500F083F98CBF56
:102D20000120002010BD10B500F07CF92CBF01205F
:102D3000002010BD10B500F0A9F994BF01200020BB
:102D400010BD10B500F0A2F934BF0120002010BD65
:102D5000401058BFC0F14040491058BFC1F1404138
:102D60008142EFF3008070474FF47F0C1CEAD012D1
:102D70001EBF1CEAD11392EA0C0F93EA0C0F00F06D
:102D8000858090EA010F48BF42F4807240F4000C45
:102D900041F400002CF07F4120F07F4000B5A2EB11
:102DA000030281420FF2081CACEB504E9EF800E08B
:102DB000C0F100004FEA4E0E00FB0EFC38BF490088
:102DC0004FEA2C1C0CFB0EF34FEACE1E0EEB635E9B
:102DD0004FEA112C0EFB0CFC4FEAC1214FEA1C53A9
:102DE00000FB031102F5FA024FEA112C0EFB0CFC5A
:102DF0004FEA01314FEADC4C00FB0C1142EB22425E
:102E0000C14228BF09184CEB03335DF804EB10EB0B
:102E1000410143EBC250B2F57C0F38BF704729D552
:102E200012F0F00F1CBF00F1C04000F000407047EE
:102E3000008182838485868788898B8C8D8E8F9193
:102E40009293959697999A9C9D9FA0A2A3A5A7A8B7
:102E5000AAACAEB0B2B3B5B7B9BCBEC0C2C5C7C9E3
:102E6000CCCED1D4D7D9DCDFE2E6E9ECF0F3F7FA47
:102E7000FE0000004FEA400C0CF1807CBCF17E4F5C
:102E800028BF7047B0F1C04000F0FBB90CEAD11385
:102E900090EA010F48BF42F48072624538BF634533
:102EA00007D213F47F0F16D080EA010000F0004033
:102EB000704710B500F09FF9097EFC3E00F005B8A0
:102EC00080EA010000F00040704780EA010000F055
:102ED000004000F0D6B912F47F0F04BF02487047DB
:102EE00080EA010000F0CDB90000C07F50EA010C7B
:102EF00000F113801CF5000F58BFBCF5000F01D482
:102F00008842704707D710F5000F58BF11F5000F22
:102F100015D488427047894270471CF5000F04D5CC
:102F2000BCF5000FF7D5814270474FF0807C1CEB59
:102F3000400F38BF1CEB410F01D28142704710B5E2
:102F400000F059F9922449004FF000504FF08051A1
:102F5000FFF7FEBE41000B0ED3F19E0208D950F4DC
:102F600000034FEA032323FA02F048BF40427047B0
:102F700010B500F040F900BF49922480002070474E
:102F80006FF0004282EA200070470000C10DD1F1CD
:102F90009E0206DB4FEA002343F0004323FA02F0CF
:102FA0007047004207D54FEA4001B1F1FE4F02D20F
:102FB0004FF00000704710B500F01DF949922480D1
:102FC000002070476FEA20007047000010F00041B9
:102FD00048BF4042B0FA80F310FA03F2C3F19D03F8
:102FE0000BD051EAC35101EB1220530638BF704792
:102FF00000F1010008BF20F001007047B0FA80F333
:1030000010FA03F2C3F19D030AD0D90501EB122097
:10301000530638BF704700F1010008BF20F00100DF
:103020007047000050EA010C00F113801CF5000FFE
:1030300058BFBCF5000F01D48842704707D710F580
:10304000000F58BF11F5000F15D488427047894210
:1030500070471CF5000F04D5BCF5000FF7D5814271
:1030600070474FF0807C1CEB400F38BF1CEB410FCA
:1030700001D28142704710B500F0BDF8922449009A
:103080004FF080504FF00051FFF762BE50EA010C44
:1030900000F113801CF5000F58BFBCF5000F01D4E0
:1030A0008842704707D710F5000F58BF11F5000F81
:1030B00015D488427047894270471CF5000F04D52B
:1030C000BCF5000FF7D5814270474FF0807C1CEBB8
:1030D000400F38BF1CEB410F01D28142704710B541
:1030E00000F089F8922449004FF000504FF08051D1
:1030F000FFF72EBE4FF47F0C1CEAD0121EBF1CEA55
:10310000D11392EA0C0F93EA0C0F00F0478090EA7B
:10311000010F48BF42F480724FF0004C4CEA00208F
:103120004CEA012102EB0302A0FB0113A2F500020D
:10313000002918BF43F001035B0028BF4FEA3303A7
:1031400042EB22425FEA132C4CEBC2502EBFBCEB89
:10315000436FB2F57C0F70474FEA036CBCF1004F30
:1031600008BF20F00100B2F57C0F38BF70470BD5C7
:1031700082F0FF0212F5803FC8BF704700F1C040E7
:10318000D8BF00F00040704700F5000C5FEA4C0C1F
:1031900048BF7047B0F1C04000F073B80CEAD113DB
:1031A00090EA010F48BF42F48072624538BF634520
:1031B00004D280EA010000F00040704710B500F032
:1031C0001AF800BF8900013E00F007B800F009B806
:1031D0005FEA410C5FEA1C6C08D080EA010000F055
:1031E00050B85FEA400C5FEA1C6CF6D14FF000402B
:1031F000A0F5800070470EF1020E2EF0030E5EF86F
:10320000044B244204D44FEA4102B2F17F4F11D85B
:103210004FEA4003B3F17F4F0CD80ED14FEAD07C78
:103220000CEB4C0C0CF1020CB2F17F4F08BF4CEBD5
:10323000D17C04E04FF0080C01E04FEAD17C0CEBAC
:103240004C0324FA03F404F00704B4F1040C06D28E
:103250000EEB840CBDE810404CF0010C6047DFE839
:103260000CF0070802024FF00040A0F5800010BDEE
:103270000846420018BFD2F1807288BF00F00040BB
:1032800010BDFF2141EAD050C00570475FEA400CF5
:103290005FEA1C6CBCF17F0314D4D3F1170240F336
:1032A0001C804FF0010C0CFA02FCACF1010303404E
:1032B00020EA0300B3EB5C0208BF10EA0C0F88BFE2
:1032C00060447047B3F1FF3F28BF5FEA002C00F075
:1032D000004088BF40F07E507047BCF1FF0FB8BF80
:1032E000704710B5FFF787FF40DBB6BE80F00040A7
:1032F00090EA010F7FF5A1AC81F0004100F007B822
:1033000090EA010F48BF81F000413FF596AC421AA8
:1033100004D882F00042A0EB020011444FEAD052E0
:10332000A2EBD1534FF07F4C1CEA410F18BF9CEA2F
:10333000026F4AD04FF0004C4CEA00204CEA0121C9
:1033400021FA03FCB0EB0C0C0FD412F0FE0F36D0B8
:103350005FEA4C001DD5001240EBC25038BF7047E9
:103360001CF03F0F18BF70470BE05FEA1C20A2F172
:10337000010240EBC25038BF70471CF07F0F18BFEE
:103380007047C3F12003994014BF401E20F0010094
:1033900070474FEA1223800808BF7047B0FA80FCDC
:1033A000A2EB0C02CCF1280C60FA0CF093EA122F7D
:1033B00004BF00EBC25070474FEAC3707047130A56
:1033C0005FEADC1008BF7047F6E79CEA026F04D0A2
:1033D00010EA5C0F08BF0020704710B5FFF70BFF25
:1033E00040DFF63E81F0004070470CF00F03092BE0
:1033F00008BF082000F051800A2B0BD0082B18BF03
:10340000704708BF1CF0400F0AD04FF000004FF08B
:10341000000170471CF0400F18BF4FF0004070478C
:103420001CF0100F08D000F07F4220F0704342EAF9
:10343000D3014FEA4370704700F0604021F07F42B3
:1034400042EA000201F07F4040EA727070474FF09C
:10345000FF0212EAD0521CBF92F0FF038B42C2BFA0
:10346000D14200EBC1507047002A0AD0002B0BD08C
:1034700000F000400029A4BF40F0FE4040F40000EE
:10348000704700F00040704743024FF00B0C18BF2C
:103490004CF0806C7FF42CAC70471CF4801F11D072
:1034A0001CF4E02F03D06FEACC31490070474FF095
:1034B0004050EFF3008222F0704242EA000282F3B1
:1034C000008870474FF000007047000000000000C7
:1034D0006E83F9A22915444ED15727FCC0DD34F57F
:1034E000999562DB4190433CAB6351FE00000000C4
:1034F00000000000010203040607080900000000A4
:1035000001020304000610160006101641233400C1
:10351000432334004423340046233400472334003B
:103520004134004234004334004434004534004602
:103530003400473400000000583500080000002027
:1035400070000000E8010008C83500087000002085
:1035500078080000080200080100000010000000C8
:103560000024F40026350008A4D08243103500085A
:103570000A978A43293500087BD492431435000802
:10358000A4909B432C350008A4D0A4432F350008F9
:10359000719DAE4318350008B8FEB84332350008B7
:1035A0000000C4431C35000866A6CF432035000840
:1035B0000000DC430C3500087B14E9432335000888
:0835C000A4F0F6430000000036
:040000050800018569
:00000001FF
